{
  "contractName": "Test1",
  "abi": [
    {
      "constant": true,
      "inputs": [],
      "name": "number_",
      "outputs": [
        {
          "name": "",
          "type": "uint256"
        }
      ],
      "payable": false,
      "stateMutability": "view",
      "type": "function"
    },
    {
      "inputs": [
        {
          "name": "_defaultNumber",
          "type": "uint256"
        }
      ],
      "payable": false,
      "stateMutability": "nonpayable",
      "type": "constructor"
    },
    {
      "constant": false,
      "inputs": [
        {
          "name": "_number",
          "type": "uint256"
        }
      ],
      "name": "setNumber",
      "outputs": [],
      "payable": false,
      "stateMutability": "nonpayable",
      "type": "function"
    },
    {
      "constant": true,
      "inputs": [],
      "name": "getNumber",
      "outputs": [
        {
          "name": "number",
          "type": "uint256"
        }
      ],
      "payable": false,
      "stateMutability": "view",
      "type": "function"
    }
  ],
  "bytecode": "0x608060405234801561001057600080fd5b506040516020806101618339810180604052810190808051906020019092919050505080600081905550506101178061004a6000396000f3006080604052600436106053576000357c0100000000000000000000000000000000000000000000000000000000900463ffffffff1680633fb5c1cb1460585780639cb9a1ab146082578063f2c9ecd81460aa575b600080fd5b348015606357600080fd5b5060806004803603810190808035906020019092919050505060d2565b005b348015608d57600080fd5b50609460dc565b6040518082815260200191505060405180910390f35b34801560b557600080fd5b5060bc60e2565b6040518082815260200191505060405180910390f35b8060008190555050565b60005481565b600080549050905600a165627a7a7230582013c4ec74689a12f2d6b8d11e2eb379b03de9bf6d7b857dda50b3dd58248d08b60029",
  "source": "pragma solidity ^0.4.24;\n\ncontract Test1 {\n\n  uint public number_;\n\n  constructor(uint _defaultNumber) public {\n    number_ = _defaultNumber;\n  }\n\n  function setNumber(uint _number) public {\n    number_ = _number;\n  }\n\n  function getNumber() public view returns (uint number) {\n    return number_;\n  }\n\n}\n",
  "sourcePath": "/Users/charles/Desktop/Development/Ara/ara-util/contracts/Test1.sol",
  "compiler": {
    "name": "solc",
    "version": "0.4.24+commit.e67f0147.Emscripten.clang"
  },
  "schemaVersion": "2.0.1",
  "updatedAt": "2018-12-07T19:04:11.512Z"
}