{
  "contractName": "Test2",
  "abi": [
    {
      "constant": true,
      "inputs": [],
      "name": "number_",
      "outputs": [
        {
          "name": "",
          "type": "uint256"
        }
      ],
      "payable": false,
      "stateMutability": "view",
      "type": "function"
    },
    {
      "inputs": [],
      "payable": false,
      "stateMutability": "nonpayable",
      "type": "constructor"
    },
    {
      "constant": false,
      "inputs": [
        {
          "name": "_number",
          "type": "uint256"
        }
      ],
      "name": "setNumber",
      "outputs": [],
      "payable": false,
      "stateMutability": "nonpayable",
      "type": "function"
    },
    {
      "constant": true,
      "inputs": [],
      "name": "getNumber",
      "outputs": [
        {
          "name": "number",
          "type": "uint256"
        }
      ],
      "payable": false,
      "stateMutability": "view",
      "type": "function"
    },
    {
      "constant": true,
      "inputs": [
        {
          "name": "arg",
          "type": "uint256"
        }
      ],
      "name": "getNumberArg",
      "outputs": [
        {
          "name": "number",
          "type": "uint256"
        }
      ],
      "payable": false,
      "stateMutability": "view",
      "type": "function"
    }
  ],
  "bytecode": "0x608060405234801561001057600080fd5b5061017a806100206000396000f300608060405260043610610062576000357c0100000000000000000000000000000000000000000000000000000000900463ffffffff16806317f6bc28146100675780633fb5c1cb146100a85780639cb9a1ab146100d5578063f2c9ecd814610100575b600080fd5b34801561007357600080fd5b506100926004803603810190808035906020019092919050505061012b565b6040518082815260200191505060405180910390f35b3480156100b457600080fd5b506100d360048036038101908080359060200190929190505050610135565b005b3480156100e157600080fd5b506100ea61013f565b6040518082815260200191505060405180910390f35b34801561010c57600080fd5b50610115610145565b6040518082815260200191505060405180910390f35b6000819050919050565b8060008190555050565b60005481565b600080549050905600a165627a7a7230582095b39e98d41701427c0bbe5a993aea9c83ae6391050a36892659f2a39da653f80029",
  "source": "pragma solidity ^0.4.24;\n\ncontract Test2 {\n\n  uint public number_;\n\n  constructor() public { }\n\n  function setNumber(uint _number) public {\n    number_ = _number;\n  }\n\n  function getNumber() public view returns (uint number) {\n    return number_;\n  }\n\n  function getNumberArg(uint arg) public view returns (uint number) {\n    return arg;\n  }\n\n}\n",
  "sourcePath": "/Users/charles/Desktop/Development/Ara/ara-util/contracts/Test2.sol",
  "compiler": {
    "name": "solc",
    "version": "0.4.24+commit.e67f0147.Emscripten.clang"
  },
  "schemaVersion": "2.0.1",
  "updatedAt": "2018-12-07T19:04:11.514Z"
}